:020000040800F2
:1000000000000220A11A0008E5180008E7180008FF
:10001000E9180008EB180008ED18000800000000BF
:10002000000000000000000000000000EF180008C1
:10003000F118000800000000F3180008F518000887
:10004000F11A0008F11A0008F11A0008F11A000864
:10005000F11A0008F11A0008F11A0008F11A000854
:10006000F11A0008F11A0008F11A0008F11A000844
:10007000F11A0008F11A0008F11A0008F11A000834
:10008000F11A0008F11A0008F11A0008F11A000824
:10009000F11A0008F11A0008F11A0008F11A000814
:1000A000F11A0008F11A0008F11A0008F11A000804
:1000B000F11A0008F11A0008F11A0008F11A0008F4
:1000C000F11A0008F11A0008F11A0008F11A0008E4
:1000D000F11A0008FD180008F11A0008F11A0008CA
:1000E000F11A0008F11A0008F11A0008F11A0008C4
:1000F000F11A0008F11A0008F11A0008F11A0008B4
:10010000F11A0008F11A0008F11A0008F11A0008A3
:10011000F11A0008F11A0008F11A0008F11A000893
:10012000F11A0008F11A0008F11A0008F11A000883
:10013000F11A0008F11A0008F11A0008F11A000873
:10014000F11A0008F11A0008F11A0008F11A000863
:10015000F11A0008F11A0008F11A0008F11A000853
:10016000F11A0008F11A0008F11A0008F11A000843
:10017000F11A0008F11A0008F11A00080000000046
:08018000F11A0008F11A000851
:1001C00010B5054C237833B9044B13B10448AFF391
:1001D00000800123237010BDC00900200000000032
:1001E00088B4000808B5034B1BB103490348AFF3BB
:1001F000008008BD00000000C409002088B4000889
:1002000053B94AB9002908BF00281CBF4FF0FF317D
:100210004FF0FF3000F074B9ADF1080C6DE904CE79
:1002200000F006F8DDF804E0DDE9022304B07047D1
:100230002DE9F047089E0D4604468846002B4DD117
:100240008A42944668D9B2FA82F252B101FA02F3B4
:10025000C2F1200120FA01F10CFA02FC41EA030884
:1002600094404FEA1C45210CB8FBF5FE1FFA8CF7B1
:1002700005FB1E8341EA03430EFB07F199420BD9AC
:100280001CEB03030EF1FF3080F01E81994240F217
:100290001B81AEF1020E63445B1AA4B2B3FBF5F00E
:1002A00005FB103344EA034400FB07F7A7420AD9D1
:1002B0001CEB040400F1FF3380F00881A74240F2F8
:1002C000058164440238E41B40EA0E4000211EB15F
:1002D000D4400023C6E90043BDE8F0878B4208D92B
:1002E000002E00F0EE800021C6E900050846BDE8BA
:1002F000F087B3FA83F100294AD1AB4202D382429C
:1003000000F2F980841A65EB030301209846002E61
:10031000E2D0C6E90048DFE702B9FFDEB2FA82F2B6
:10032000002A40F09180A1EB0C054FEA1C471FFA10
:100330008CFE0121B5FBF7F307FB1350250C45EAB2
:1003400000450EFB03F0A84208D91CEB050503F19C
:10035000FF3802D2A84200F2CB8043462D1AA4B245
:10036000B5FBF7F007FB105544EA05440EFB00FE11
:10037000A64508D91CEB040400F1FF3502D2A645BE
:1003800000F2BB802846A4EB0E0440EA03409EE73F
:10039000C1F120078B4022FA07FC4CEA030C20FA3B
:1003A00007F405FA01F31C43FD404FEA1C4900FA2B
:1003B00001F3B5FBF9F8200C1FFA8CFE09FB185568
:1003C00040EA054508FB0EF0A84202FA01F20BD9FB
:1003D0001CEB050508F1FF3A80F08880A84240F246
:1003E0008580A8F1020865442D1AA4B2B5FBF9F086
:1003F00009FB105544EA054500FB0EFEAE4508D941
:100400001CEB050500F1FF346CD2AE456AD9023809
:10041000654440EA0840A0FB0294A5EB0E05A54206
:10042000C846A64656D353D05EB1B3EB080265EB7F
:100430000E0505FA07F722FA01F3CD401F43C6E97E
:1004400000750021BDE8F087C2F1200320FA03F116
:100450000CFA02FC25FA03F395400D434FEA1C47C2
:100460001FFA8CFEB3FBF7F107FB11302B0C43EAAC
:10047000004301FB0EF0984204FA02F408D91CEB89
:10048000030301F1FF382FD298422DD9023963447A
:100490001B1AADB2B3FBF7F007FB103345EA034577
:1004A00000FB0EF3AB4208D91CEB050500F1FF3849
:1004B00016D2AB4214D902386544ED1A40EA014124
:1004C00038E73146304607E78646E5E61846FAE65D
:1004D0004B45A9D2B9EB020864EB0C0E0138A3E737
:1004E0004046EAE7204694E74146D1E7D0467BE71D
:1004F000023B654432E7084609E76444023842E7B4
:10050000704700BF00000000000000000000000075
:1005100000000000000000000000000000000000DB
:1005200000000000000000000000000000000000CB
:1005300000000000000000000000000000000000BB
:1005400090F800F06DE9024520F007016FF0000C13
:1005500010F0070491F820F040F049804FF00004BB
:100560006FF00700D1E9002391F840F000F1080096
:1005700082FA4CF2A4FA8CF283FA4CF3A2FA8CF3CE
:100580004BBBD1E9022382FA4CF200F10800A4FA35
:100590008CF283FA4CF3A2FA8CF3E3B9D1E9042389
:1005A00082FA4CF200F10800A4FA8CF283FA4CF3C0
:1005B000A2FA8CF37BB9D1E9062301F1200182FA7A
:1005C0004CF200F10800A4FA8CF283FA4CF3A2FA80
:1005D0008CF3002BC6D0002A04BF04301A4612BA8E
:1005E000B2FA82F2FDE8024500EBD2007047D1E991
:1005F000002304F00305C4F100004FEAC50514F020
:10060000040F91F840F00CFA05F562EA05021CBFF0
:1006100063EA050362464FF00004A9E7000000000A
:1006200001F0FF01102A2BDB10F0070F08D010F8A3
:10063000013B013A8B422DD010F0070F42B3F6D1A7
:10064000F0B441EA012141EA014122F007047FF0C0
:1006500000070023F0E80256083C85EA010586EA17
:10066000010685FA47F5A3FA87F586FA47F6A5FA53
:1006700087F68EB9EED1F0BC01F0FF0102F007025F
:1006800032B110F8013B013A83EA010313B1F8D10A
:100690000020704701387047002D06BF35460338EB
:1006A000073815F0010F07D1013015F4807F02BF24
:1006B000013015F4C03F0130F0BC0138704700BF75
:1006C000844641EA000313F003036DD1403A41D35D
:1006D00051F8043B40F8043B51F8043B40F8043B1C
:1006E00051F8043B40F8043B51F8043B40F8043B0C
:1006F00051F8043B40F8043B51F8043B40F8043BFC
:1007000051F8043B40F8043B51F8043B40F8043BEB
:1007100051F8043B40F8043B51F8043B40F8043BDB
:1007200051F8043B40F8043B51F8043B40F8043BCB
:1007300051F8043B40F8043B51F8043B40F8043BBB
:1007400051F8043B40F8043B51F8043B40F8043BAB
:10075000403ABDD2303211D351F8043B40F8043B4B
:1007600051F8043B40F8043B51F8043B40F8043B8B
:1007700051F8043B40F8043B103AEDD20C3205D35B
:1007800051F8043B40F8043B043AF9D2043208D053
:10079000D2071CBF11F8013B00F8013B01D30B88C5
:1007A00003806046704700BF082A13D38B078DD0A3
:1007B00010F003038AD0C3F10403D21ADB071CBF75
:1007C00011F8013B00F8013B80D331F8023B20F8DF
:1007D000023B7BE7043AD9D3013A11F8013B00F818
:1007E000013BF9D20B7803704B7843708B788370A0
:1007F0006046704781F0004102E000BF83F0004393
:1008000030B54FEA41044FEA430594EA050F08BFAB
:1008100090EA020F1FBF54EA000C55EA020C7FEA6F
:10082000645C7FEA655C00F0E2804FEA5454D4EBEC
:100830005555B8BF6D420CDD2C4480EA020281EAB6
:10084000030382EA000083EA010180EA020281EAEE
:100850000303362D88BF30BD11F0004F4FEA013140
:100860004FF4801C4CEA113102D0404261EB41014F
:1008700013F0004F4FEA03334CEA133302D05242D5
:1008800063EB430394EA050F00F0A780A4F1010491
:10089000D5F1200E0DDB02FA0EFC22FA05F28018CB
:1008A00041F1000103FA0EF2801843FA05F35941B1
:1008B0000EE0A5F120050EF1200E012A03FA0EFC30
:1008C00028BF4CF0020C43FA05F3C01851EBE3715A
:1008D00001F0004507D54FF0000EDCF1000C7EEB77
:1008E00000006EEB0101B1F5801F1BD3B1F5001FB5
:1008F0000CD349085FEA30004FEA3C0C04F10104D4
:100900004FEA445212F5800F80F09A80BCF1004FFC
:1009100008BF5FEA500C50F1000041EB045141EA7E
:10092000050130BD5FEA4C0C404141EB0101013C47
:1009300028BFB1F5801FE9D291F0000F04BF014636
:100940000020B1FA81F308BF2033A3F10B03B3F108
:1009500020020CDA0C3208DD02F1140CC2F10C0298
:1009600001FA0CF021FA02F10CE002F11402D8BFF6
:10097000C2F1200C01FA02F120FA0CFCDCBF41EAC2
:100980000C019040E41AA2BF01EB0451294330BD91
:100990006FEA04041F3C1CDA0C340EDC04F114046E
:1009A000C4F1200220FA04F001FA02F340EA030045
:1009B00021FA04F345EA030130BDC4F10C04C4F18B
:1009C000200220FA02F001FA04F340EA030029466B
:1009D00030BD21FA04F0294630BD94F0000F83F4B5
:1009E000801306BF81F480110134013D4EE77FEA98
:1009F000645C18BF7FEA655C29D094EA050F08BFE4
:100A000090EA020F05D054EA000C04BF19461046C4
:100A100030BD91EA030F1EBF0021002030BD5FEA08
:100A2000545C05D14000494128BF41F0004130BD30
:100A300014F580043CBF01F5801130BD01F0004584
:100A400045F0FE4141F470014FF0000030BD7FEAF7
:100A5000645C1ABF194610467FEA655C1CBF0B46F2
:100A6000024650EA013406BF52EA033591EA030F09
:100A700041F4002130BD00BF90F0000F04BF002101
:100A8000704730B54FF4806404F132044FF0000534
:100A90004FF0000150E700BF90F0000F04BF0021AD
:100AA000704730B54FF4806404F1320410F0004513
:100AB00048BF40424FF000013EE700BF42004FEA0E
:100AC000E2014FEA31014FEA02701FBF12F07F438B
:100AD00093F07F4F81F06051704732F07F4208BF42
:100AE000704793F07F4F04BF41F40021704730B549
:100AF0004FF4607401F0004521F000411CE700BF95
:100B000050EA010208BF704730B54FF000050AE017
:100B100050EA010208BF704730B511F0004502D518
:100B2000404261EB41014FF4806404F132045FEA1A
:100B3000915C3FF4D8AE4FF003025FEADC0C18BFC3
:100B400003325FEADC0C18BF033202EBDC02C2F1B5
:100B5000200300FA03FC20FA02F001FA03FE40EA47
:100B60000E0021FA02F11444BDE600BF70B54FF04B
:100B7000FF0C4CF4E06C1CEA11541DBF1CEA135529
:100B800094EA0C0F95EA0C0F00F0DEF82C4481EA91
:100B9000030621EA4C5123EA4C5350EA013518BFB1
:100BA00052EA033541F4801143F4801338D0A0FB9E
:100BB00002CE4FF00005E1FB02E506F00042E0FB4B
:100BC00003E54FF00006E1FB03569CF0000F18BF51
:100BD0004EF0010EA4F1FF04B6F5007F64F54074F9
:100BE00004D25FEA4E0E6D4146EB060642EAC6218C
:100BF00041EA55514FEAC52040EA5E504FEACE2EF9
:100C0000B4F1FD0C88BFBCF5E06F1ED8BEF1004FFB
:100C100008BF5FEA500E50F1000041EB045170BD77
:100C200006F0004646EA010140EA020081EA0301BB
:100C3000B4EB5C04C2BFD4EB0C0541EA045170BDB7
:100C400041F480114FF0000E013C00F3AB8014F131
:100C5000360FDEBF002001F0004170BDC4F100047A
:100C6000203C35DA0C341BDC04F11404C4F12005FB
:100C700000FA05F320FA04F001FA05F240EA020056
:100C800001F0004221F0004110EBD37021FA04F68C
:100C900042EB06015EEA430E08BF20EAD37070BD46
:100CA000C4F10C04C4F1200500FA04F320FA05F0A5
:100CB00001FA04F240EA020001F0004110EBD370A7
:100CC00041F100015EEA430E08BF20EAD37070BD17
:100CD000C4F1200500FA05F24EEA020E20FA04F3F0
:100CE00001FA05F243EA020321FA04F001F000419F
:100CF00021FA04F220EA020000EBD3705EEA430E10
:100D000008BF20EAD37070BD94F0000F0FD101F03E
:100D10000046400041EB010111F4801F08BF013C77
:100D2000F7D041EA060195F0000F18BF704703F0B5
:100D30000046520043EB030313F4801F08BF013D3C
:100D4000F7D043EA0603704794EA0C0F0CEA1355F8
:100D500018BF95EA0C0F0CD050EA410618BF52EAB2
:100D60004306D1D181EA030101F000414FF00000B8
:100D700070BD50EA410606BF1046194652EA4306C6
:100D800019D094EA0C0F02D150EA013613D195EA3A
:100D90000C0F05D152EA03361CBF104619460AD182
:100DA00081EA030101F0004141F0FE4141F470018C
:100DB0004FF0000070BD41F0FE4141F4780170BD7C
:100DC00070B54FF0FF0C4CF4E06C1CEA11541DBFE1
:100DD0001CEA135594EA0C0F95EA0C0F00F0A7F8E3
:100DE000A4EB050481EA030E52EA03354FEA013110
:100DF00000F088804FEA03334FF0805545EA131323
:100E000043EA12634FEA022245EA111545EA1065EA
:100E10004FEA00260EF000419D4208BF964244F181
:100E2000FD0404F5407402D25B084FEA3202B61AA0
:100E300065EB03055B084FEA32024FF480104FF474
:100E4000002CB6EB020E75EB030E22BFB61A7546E8
:100E500040EA0C005B084FEA3202B6EB020E75EB7B
:100E6000030E22BFB61A754640EA5C005B084FEAE3
:100E70003202B6EB020E75EB030E22BFB61A7546B0
:100E800040EA9C005B084FEA3202B6EB020E75EBBB
:100E9000030E22BFB61A754640EADC0055EA060E7C
:100EA00018D04FEA051545EA16754FEA06164FEABF
:100EB000C30343EA52734FEAC2025FEA1C1CC0D16B
:100EC00011F4801F0BD141EA00014FF000004FF0F8
:100ED000004CB6E711F4801F04BF01430020B4F1B9
:100EE000FD0C88BFBCF5E06F3FF6AFAEB5EB030C71
:100EF00004BFB6EB020C5FEA500C50F1000041EB6E
:100F0000045170BD0EF0004E4EEA113114EB5C043A
:100F1000C2BFD4EB0C0541EA045170BD41F480110D
:100F20004FF0000E013C90E645EA060E8DE60CEA15
:100F3000135594EA0C0F08BF95EA0C0F3FF43BAF32
:100F400094EA0C0F0AD150EA01347FF434AF95EAE9
:100F50000C0F7FF425AF104619462CE795EA0C0FCD
:100F600006D152EA03353FF4FDAE1046194622E79A
:100F700050EA410618BF52EA43067FF4C5AE50EA74
:100F800041047FF40DAF52EA43057FF4EBAE12E764
:100F90004FF0FF3C06E000BF4FF0010C02E000BF45
:100FA0004FF0010C4DF804CD4FEA410C7FEA6C5C28
:100FB0004FEA430C18BF7FEA6C5C1BD001B050EACB
:100FC000410C0CBF52EA430C91EA030F02BF90EAB6
:100FD000020F0020704710F1000F91EA030F58BF75
:100FE000994208BF90422CBFD8176FEAE37040F0D7
:100FF000010070474FEA410C7FEA6C5C02D150EA75
:10100000013C07D14FEA430C7FEA6C5CD6D152EA2F
:10101000033CD3D05DF8040B704700BF84461046F4
:1010200062468C461946634600E000BF01B5FFF7F3
:10103000B7FF002848BF10F1000F01BD4DF808EDC3
:10104000FFF7F4FF0CBF012000205DF808FB00BF94
:101050004DF808EDFFF7EAFF34BF012000205DF8EE
:1010600008FB00BF4DF808EDFFF7E0FF94BF01203B
:1010700000205DF808FB00BF4DF808EDFFF7CEFF3C
:1010800094BF012000205DF808FB00BF4DF808ED7B
:10109000FFF7C4FF34BF012000205DF808FB00BF4C
:1010A0004FEA410C7FEA6C5C02D150EA013C0AD164
:1010B0004FEA430C7FEA6C5C02D152EA033C02D156
:1010C0004FF0000070474FF0010070474FEA4102B7
:1010D00012F5001215D211D56FF47873B3EB62528A
:1010E00012D94FEAC12343F0004343EA505311F0B1
:1010F000004F23FA02F018BF404270474FF0000043
:10110000704750EA013005D111F0004008BF6FF080
:10111000004070474FF00000704700BF30B58BB003
:1011200000240594069407940894099401941E4B96
:101130001A6B42F020021A631A6B02F0200201922D
:10114000019A02941A6B42F080021A631A6B02F041
:1011500080020292029A03941A6B42F001021A630F
:101160001A6B02F001020392039A04941A6B42F084
:1011700002021A631B6B03F002030493049B0B4DE2
:1011800022464FF4C061284600F0D6FE4FF4C063FB
:101190000593012306930794089405A9284600F0B7
:1011A000D9FD0BB030BD00BF003802400014024032
:1011B00008B50B480B4B03600B4B43600023836067
:1011C000C3604FF48042026143618361C361036283
:1011D00001F04EF900B908BD00F086F8FBE700BF4A
:1011E000DC09002000540040A086010008B50B482F
:1011F0000B4B03600B4B436000238360C3604FF4D1
:101200008042026143618361C361036201F030F98E
:1012100000B908BD00F068F8FBE700BF300A002005
:1012200000580040A086010030B58BB00023059324
:1012300006930793089309930368264A934204D0C0
:10124000254A934224D00BB030BD00250195234C94
:10125000236B43F002032363236B03F00203019328
:10126000019BC023059312230693032308930423B1
:10127000099305A91A4800F06DFD0295236C43F40B
:1012800000132364236C03F400130293029BDAE738
:1012900000250395114C236B43F020032363236B3C
:1012A00003F020030393039B03230593122206926A
:1012B00008930423099305A90A4800F04BFD0495FF
:1012C000236C43F480032364236C03F480030493AE
:1012D000049BB8E70054004000580040003802402A
:1012E000000402400014024072B6FEE700B595B05B
:1012F0003022002108A802F06FFB0023039304931F
:1013000005930693079301931E4A116C41F0805197
:101310001164126C02F080520192019A02931A4AEF
:10132000116841F480411160126802F48042029217
:10133000029A0222089201210B9110210C910E9227
:101340000F930823109348231193129204231393AD
:1013500008A801F051FC80B90F23039302210491E6
:10136000002305934FF480520692079303A801F0DF
:10137000A3FE20B915B05DF804FBFFF7B5FFFFF73A
:10138000B3FF00BF003802400070004008B500F015
:10139000D7FBFFF7ABFFFFF7C1FE00F027FBFFF71E
:1013A00007FFFFF723FF00F0A8F800F06BF8102309
:1013B000104A0021084600F045F90A2000F05CFAC6
:1013C000032000F04BFA00210B4800F0CBF94FF45A
:1013D000FA7000F0E1FB094C4FF48061204600F008
:1013E000B1FD4FF40071204600F0ACFD044802F05E
:1013F000A7FBECE7A0B40008ACB40008001402405E
:10140000B4B4000800B587B08DF8170064230293C8
:10141000012301930DF11702009200227821034865
:1014200001F034FB07B05DF804FB00BF300A002078
:1014300010B50446A1F15000C0B2FFF7E3FF200948
:1014400040F01000FFF7DEFF04F00E0040F0010056
:10145000FFF7D8FF10BD000000B587B08DF817006A
:1014600064230293012301930DF11702009240229D
:101470007821034801F00AFB07B05DF804FB00BFC8
:10148000300A002038B5002509E00020FFF7E4FF0E
:101490000134E4B214F0800FF7D00135EDB2072D1E
:1014A0000CD8A5F15000C0B2FFF7ACFF0020FFF749
:1014B000A9FF1020FFF7A6FF0024EBE738BD70B5A9
:1014C0000546002609E02846FFF7C6FF0134E4B2CE
:1014D00014F0800FF7D00136F6B2072E0CD8A6F123
:1014E0005000C0B2FFF78EFF0020FFF78BFF1020E7
:1014F000FFF788FF0024EBE770BD08B5642000F01B
:101500004BFBAE20FFF77EFF2020FFF77BFF102074
:10151000FFF778FFB020FFF775FFC820FFF772FFD5
:101520000020FFF76FFF1020FFF76CFF4020FFF750
:1015300069FF8120FFF766FFFF20FFF763FFA1200F
:10154000FFF760FFA620FFF75DFFA820FFF75AFF17
:101550003F20FFF757FFA420FFF754FFD320FFF7EA
:1015600051FF0020FFF74EFFD520FFF74BFFF02083
:10157000FFF748FFD920FFF745FF2220FFF742FF82
:10158000DA20FFF73FFF1220FFF73CFFDB20FFF7D9
:1015900039FF2020FFF736FF8D20FFF733FF14209F
:1015A000FFF730FFAF20FFF72DFF0020FFF787FF89
:1015B00008BD0000F8B507460E46203AD5B210F037
:1015C000800F07D1102B09D031463846FFF730FF86
:1015D000002430E00236F6B20027F3E73146384601
:1015E000FFF726FF002407E004EB0513134AD05C45
:1015F000FFF732FF0134E4B2072CF5D9711CC9B2F0
:101600003846FFF715FF002408E004EB0513083304
:101610000A4AD05CFFF720FF0134E4B2072CF4D96A
:101620000BE005EB4503064A02EB4303185DFFF7A9
:1016300013FF0134E4B2052CF3D9F8BDE0B600087D
:10164000B8B400082DE9F04104460E461746984606
:10165000002501E00135EDB27A5D62B143463146C5
:101660002046FFF7A7FF0834E4B2782CF2D90236FF
:10167000F6B20024EEE7BDE8F081000008B50248AC
:1016800002F0FCF9002008BDD0BC000800B585B010
:101690008DF80F00174B4FF480521A60164801F076
:1016A000A7FA202808D0134A1368591E1160002B8E
:1016B000F4D1FFF7E3FF1AE00E4B4FF480521A60AB
:1016C0004FF6FF73009301230DF10F0260210A48CA
:1016D00000F0ACFF38B1094802F032FA4FF4FA706A
:1016E00000F05AFAECE7052000F056FA012005B0A8
:1016F0005DF804FB00000020DC090020E4BC0008C9
:1017000070B506460D46002403E0305DFFF7BEFFCE
:101710000134AC42F9DB70BD00B585B0FF238DF814
:101720000F300D4B0293042102A8FFF7E9FF02E0FE
:101730000A4802F005FA4FF6FF73009301230DF1FA
:101740000F026021064801F02DF80028F0D19DF825
:101750000F0005B05DF804FBFD000121F4BC00089A
:10176000DC0900202DE9F04184B005460E46FEF765
:10177000E7FE84B20234FD208DF80400C4F307288C
:101780008DF80580E4B28DF8064001278DF80770CA
:101790008DF808600395FFF779FF4046FFF776FF65
:1017A0002046FFF773FF3846FFF770FF3046FFF71C
:1017B0006DFF2846FEF7C4FE01462846FFF7A0FF4E
:1017C00004B0BDE8F0812DE9F04184B00546FEF794
:1017D000B7FE84B20234FD208DF80400C4F307285C
:1017E0008DF80580E4B28DF8064001278DF807706A
:1017F00000268DF808600395FFF748FF4046FFF785
:1018000045FF2046FFF742FF3846FFF73FFF3046CF
:10181000FFF73CFF2846FEF793FE01462846FFF7F8
:101820006FFF04B0BDE8F08100B585B00246B1F1AC
:10183000FF3F0AD00B46074901A802F089F901A829
:10184000FFF7C1FF05B05DF804FB034901A802F0F2
:101850007FF9F4E704BD00080CBD000808B5014697
:101860006D20FFF7E1FF02E00A2000F095F9FFF795
:1018700053FF4F28F8D108BD10B50446094802F0BF
:101880005FF921467620FFF7CFFF02E00A2000F043
:1018900083F9FFF741FF4F28F8D1034802F050F9D0
:1018A00010BD00BF14BD00082CBD000882B000218F
:1018B00000910B4B5A6C42F480425A645A6C02F409
:1018C00080420092009A01911A6C42F080521A6490
:1018D0001B6C03F080530193019B02B0704700BF63
:1018E00000380240FEE7FEE7FEE7FEE7FEE770474E
:1018F0007047704708B500F03DF908BD08B50248CB
:1019000001F000FF08BD00BF880A002001207047D9
:1019100008B502F037F8162303604FF0FF3008BD1A
:1019200008B54FF0FF31FFF7F3FFFEE770B50C4647
:101930001646002506E0AFF30080214601F8010BB2
:1019400001350C46B542F6DB304670BD70B50C462D
:101950001646002504E014F8010B00F037F80135B5
:10196000B542F8DB304670BD4FF0FF3070474FF4A2
:1019700000534B60002070470120704700207047E3
:1019800010B503460C4A0D490D48006840B10C489B
:1019900000680344521A934206D8094A136010BDE6
:1019A0000748084C0460F2E701F0ECFF0C230360E9
:1019B0004FF0FF30F3E700BF0000022000040000FA
:1019C000840A0020180B00207047000000B583B087
:1019D00001904FF6FF73012201A9034801F09BFD1E
:1019E000019803B05DF804FB880A002008B50A4896
:1019F0000A4B03604FF4E133436000238360C3600C
:101A000003610C2242618361C36101F055FD00B99D
:101A100008BDFFF769FCFBE7880A002000100140C1
:101A200010B588B00023039304930593069307939E
:101A3000026803F1804303F588339A4201D008B06D
:101A400010BD0024019403F594335A6C42F0100247
:101A50005A645A6C02F010020192019A02941A6BB5
:101A600042F001021A631B6B03F001030293029B15
:101A70004FF4C063039302230493032306930723C5
:101A8000079303A9054800F065F922462146252061
:101A900000F0A8F8252000F0DDF8D0E700000240B3
:101AA000DFF834D00D480E490E4A002302E0D45826
:101AB000C4500433C4188C42F9D30B4A0B4C002396
:101AC00001E013600432A242FBD3FFF77DFF01F077
:101AD0005FFFFFF75BFC7047000002200000002062
:101AE000C009002084C10008C0090020180B002094
:101AF000FEE7000010B504460E4B18784FF47A73D9
:101B0000B3FBF0F30C4A1068B0FBF3F000F0B0F850
:101B100068B90F2C01D901200AE0002221464FF0BC
:101B2000FF3000F05FF8054B1C60002000E0012052
:101B300010BD00BF08000020040000200C000020A1
:101B400008B50B4B1A6842F400721A601A6842F426
:101B500080621A601A6842F480721A60032000F0F2
:101B60002FF80F20FFF7C6FFFFF7A0FE002008BDEB
:101B7000003C0240034A1168034B1B780B4413607E
:101B8000704700BFCC0A002008000020014B1868F5
:101B9000704700BFCC0A002038B50446FFF7F6FFB7
:101BA0000546B4F1FF3F02D0044B1B781C44FFF7FD
:101BB000EDFF401BA042FAD338BD00BF0800002053
:101BC000074AD36823F4E0631B041B0C000200F4F3
:101BD000E060034343F0BF6343F40033D3607047D6
:101BE00000ED00E000B5194BDB68C3F30223C3F13D
:101BF000070CBCF1040F28BF4FF0040C03F1040ED6
:101C0000BEF1060F18D9033B4FF0FF3E0EFA0CFC55
:101C100021EA0C0199400EFA03F322EA0303194367
:101C200000280BDB0901C9B200F1604000F56140FA
:101C300080F800135DF804FB0023E5E700F00F00D7
:101C40000901C9B2024B1954F4E700BF00ED00E0EE
:101C500014ED00E0002807DB00F01F02400901231B
:101C60009340024A42F82030704700BF00E100E094
:101C70000138B0F1807F0BD24FF0E0235861054A64
:101C8000F02182F823100020986107221A61704722
:101C90000120704700ED00E070B50446866DFFF747
:101CA00075FF94F83530DBB2022B06D080236365D4
:101CB000002384F83430012070BD05462268136883
:101CC00023F0160313602268536923F080035361E5
:101CD000236CE3B12268136823F0080313602268C1
:101CE000136823F00103136023681B6813F0010FCE
:101CF00011D0FFF74BFF431B052BF5D9202363655C
:101D0000032084F83500002384F83430D4E7A36C32
:101D1000002BDFD1E3E7E26D3F239340B360012363
:101D200084F83530002084F83400C5E790F8353069
:101D3000DBB2022B03D080234365012070470523CB
:101D400080F835300268136823F001031360002027
:101D50007047000000230F2B00F2E48070B582B0C2
:101D600060E085685E000324B44025EA0405CC6881
:101D7000B4402C438460456825EA02054C68C4F3EE
:101D800000129A402A4342605AE0DC08083450F8B6
:101D9000246003F0070295000F22AA4026EA020EF3
:101DA0000A69AA4042EA0E0240F824205CE00722B9
:101DB00000E0002202FA0EF22A4302345A4D45F89E
:101DC00024205A4A94686FEA0C0224EA0C054E68F3
:101DD00016F4801F01D04CEA0405544CA560E46859
:101DE00002EA04054E6816F4001F01D04CEA04050F
:101DF0004E4CE560646802EA04054E6816F4003F44
:101E000001D04CEA0405494C6560246822404D68C5
:101E100015F4803F01D04CEA0402444C22600133A7
:101E20000F2B7DD801229A400C6804EA020C32EA9A
:101E30000404F4D14C6804F00304013C012C90D953
:101E40004A6802F00302032A09D0C4685D00032235
:101E5000AA4024EA02048A68AA402243C2604A686F
:101E600002F00302022A90D004684FEA430E0322D4
:101E700002FA0EF224EA02044A6802F0030202FAAD
:101E80000EF2224302604A6812F4403FC7D000229B
:101E90000192274A546C44F480445464526C02F416
:101EA00080420192019A9C08A51C1F4A52F82550B5
:101EB00003F003024FEA820E0F2202FA0EF225EA25
:101EC00002051C4A90423FF474AF02F580629042D2
:101ED0001AD002F58062904218D002F580629042DA
:101EE00016D002F58062904214D002F580629042D2
:101EF00012D002F58062904210D002F580629042CA
:101F00003FF455AF082255E7012253E7022251E77B
:101F100003224FE704224DE705224BE7062249E75B
:101F200002B070BD704700BF00380140003C014066
:101F300000380240000002400AB181617047090484
:101F400081617047436901EA030221EA030141EA22
:101F500002418161704703685A6912F4806F01D1B0
:101F6000002070476FF480625A61002303632022CF
:101F700080F83D2080F83E30026C42F0040202649A
:101F800080F83C30012070472DE9F04107460D46AE
:101F900090461E4624E0FFF7F9FD069BC01AB042AA
:101FA00000D8EEB900233B63202287F83D2087F854
:101FB0003E303A6C42F020023A6487F83C3001200F
:101FC0001EE03B689C6925EA040C1FFA8CFCBCFAF5
:101FD0008CFC4FEA5C1CE04511D1B6F1FF3FDAD131
:101FE000C5F30743012BECD13B685B6925EA030C81
:101FF0001FFA8CFCBCFA8CFC4FEA5C1CEBE700205F
:10200000BDE8F0812DE9F04105460E461746984699
:102010003DE01A6842F400721A602B686FF4806227
:102020005A6100232B63202285F83D2085F83E303D
:102030002A6C42F004022A6485F83C30012034E026
:10204000FFF7A4FDA0EB0800B84200D8FFB90023B9
:102050002B63202285F83D2085F83E302A6C42F023
:1020600020022A6485F83C3001201EE02B689C6920
:1020700026EA0404A4B2003C18BF0124A4B12B68D2
:102080005A6912F4806FC4D1B7F1FF3FD8D1C6F3BB
:102090000743012BEAD12B685C6926EA0404A4B249
:1020A000003C18BF0124E9E70020BDE8F0810000F2
:1020B000F0B583B004460D4616461F46C36A082B8A
:1020C0000DD0012B0BD013F5803F08D0036B122BE2
:1020D0000AD10268136843F48073136004E0226835
:1020E000136843F4807313600097334600224FF067
:1020F00001112046FFF748FF80B92369B3F5804FEF
:1021000016D1236805F0FE051D613B463246134992
:102110002046FFF777FFF8B903B0F0BD23681B68CE
:1021200013F4807F02D04FF4007323640320F3E79D
:10213000EB11226803F0060343F0F00313613B4602
:10214000324607492046FFF75DFF18B92368EDB214
:102150001D61DAE70120DFE70120DDE70200010071
:10216000080001002DE9F04184B004460D461646F2
:102170001F46C26A01680B6843F480630B60082A3B
:102180000DD0012A0BD012F5803F08D0036B112B24
:102190000AD10268136843F48073136004E0226874
:1021A000136843F4807313600097334600224FF0A6
:1021B00001112046FFF7E8FE98B92369B3F5804F77
:1021C00019D1236845F00105EDB21D613B46324649
:1021D0002A492046FFF716FF00284CD104B0BDE87D
:1021E000F08123681B6813F4807F02D04FF40073E2
:1021F00023640320F2E74FEAE51808F00608236895
:1022000048F0F0021A613B4632461D492046FFF76E
:10221000F9FE08B10120E1E72368EDB21D613B46FC
:10222000324616492046FFF7EDFE08B10120D5E7FA
:1022300000220392236859690391996903910399D4
:10224000196841F480711960009733464FF001110D
:102250002046FFF799FE20B9226848F0F103136188
:10226000B4E723681B6813F4807F02D04FF4007337
:1022700023640320B2E70120B0E700BF02000100A1
:102280000800010070B504460D46164623685B69D8
:1022900013F0800F1CD12046FFF75DFED0B9B5F1D9
:1022A000FF3FF3D0FFF772FC801BA84201D8002D3E
:1022B000ECD100232363202284F83D2084F83E30B3
:1022C000226C42F02002226484F83C30012000E0BD
:1022D000002070BD0120FCE72DE9F04385B00446E5
:1022E0000D4691461F46DDF830800D9E0368196843
:1022F00041F4807119600096434600224FF00111AD
:10230000FFF742FE60B9236805F0FE051D61334604
:10231000424626492046FFF775FE68B1012008E0D5
:1023200023681B6813F4807F02D04FF4007323648A
:10233000032005B0BDE8F0830023039323685A69A6
:1023400003929B690393039B324641462046FFF765
:1023500099FF30B9012F0FD123685FFA89F61E610A
:10236000E7E7236C042B01D00120E2E72268136821
:1023700043F400731360F7E723684FEA19221A61E8
:10238000324641462046FFF77DFF20B923685FFAB9
:1023900089F61E61CDE7236C042B01D00120C8E72C
:1023A0002268136843F400731360F7E7020001002A
:1023B00070B504460D46164623685B6913F0040F9A
:1023C0001CD12046FFF7C7FDD0B9B5F1FF3FF3D0D0
:1023D000FFF7DCFB801BA84201D8002DECD10023C5
:1023E0002363202284F83D2084F83E30226C42F0A2
:1023F0002002226484F83C30012000E0002070BDFF
:102400000120FCE770B505460C4616462B68596955
:1024100011F0400F29D1596911F0100F15D1FFF7B4
:10242000B5FB801BA04201D8002CEFD100232B6309
:10243000202285F83D2085F83E302A6C42F02002AB
:102440002A6485F83C30012070BD6FF010025A619B
:1024500000232B63202285F83D2085F83E302A6C2E
:102460002A6485F83C300120EEE70020ECE700000C
:10247000002800F0CC8070B5044690F83D30002B69
:1024800077D0242384F83D302268136823F00103B9
:1024900013602268136843F40043136022681368D2
:1024A00023F40043136000F0BDFE62685A4B9A4269
:1024B00064D85A4B98428CBF00230123002B40F074
:1024C000A8805749A1FB00318B0C25686A6822F06F
:1024D0003F0242EA91426A6021680A6A22F03F02A2
:1024E00066684D4DAE424FD8013313430B622168ED
:1024F000CA6922F44F4222F0FF026668464B9E42B0
:102500004CD8431E7600B3FBF6F3013340F6FC7063
:10251000034278D0C3F30B031343CB6121680B68EC
:1025200023F0C003E269206A024313430B60216871
:102530008B6823F4034323F0FF032269E06802431E
:1025400013438B602168CB6823F0FF036269A069A5
:1025500002431343CB602268136843F00103136006
:1025600000202064202384F83D30206384F83E005E
:1025700070BD80F83C30FEF757FE82E7294B984249
:102580008CBF0023012399E74FF4967505FB03F3F5
:10259000254DA5FB03539B090133A6E7A368BBB9EF
:1025A000451E06EB460CB5FBFCF50135C5F30B05E6
:1025B000B5FA85F56D0945BBC3B9013806EB46038D
:1025C000B0FBF3F30133C3F30B0343F40043A3E77E
:1025D000451E06EB860C0CEB8C0CB5FBFCF50135AF
:1025E000C5F30B05B5FA85F56D09E4E7013806EB8F
:1025F000860303EB8303B0FBF3F30133C3F30B0355
:1026000043F4404388E7042386E7012384E701205D
:1026100070470120ACE700BFA08601007F841E0048
:1026200083DE1B43FF083D00D34D62102DE9F043CC
:1026300085B004460F46914698460C9EFFF7A6FAD1
:10264000054694F83D00C0B2202804D00227384641
:1026500005B0BDE8F0830095192301224F492046BB
:10266000FFF792FC002840F0928094F83C30012B58
:1026700000F08F80012384F83C3023681A6812F040
:10268000010F03D11A6842F001021A602268136830
:1026900023F400631360212384F83D30102384F871
:1026A0003E3000232364C4F82490A4F82A80638D6C
:1026B00023853B4BE3622B46324639462046FFF7E3
:1026C000F7FC0746002866D10023039323685A6964
:1026D00003929B690393039B11E0236C042B01D0AD
:1026E0000127B4E72268136843F400731360F7E727
:1026F0002A4631462046FFF75BFE00282ED1238D67
:10270000002B36D02A4631462046FFF7BBFD002875
:10271000E3D1626A236812781A61606A431C6362BB
:10272000618D89B2013989B26185238D013B9BB2EC
:1027300023852268516911F0040FD9D0002BD7D01E
:1027400043781361636A01336362638D9BB2013B1B
:102750009BB26385238D013B2385C9E7236C042B42
:1027600001D0012773E72268136843F400731360F4
:10277000F7E72268136843F400731360202384F89A
:102780003D30002384F83E3084F83C305FE7022778
:102790005DE702275BE7012759E700BF0200100051
:1027A0000000FFFF2DE9F04387B004460F46914635
:1027B00098460E9EFFF7EAF9054694F83D00C0B230
:1027C000202804D00227384607B0BDE8F0830095E2
:1027D0001923012289492046FFF7D6FB002840F043
:1027E000458194F83C30012B00F04281012384F8AC
:1027F0003C3023681A6812F0010F03D11A6842F0C6
:1028000001021A602268136823F400631360222314
:1028100084F83D30102384F83E3000232364C4F84C
:102820002490A4F82A80638D2385754BE3622B46A0
:10283000324639462046FFF795FC0746002840F00F
:102840001981238D5BB9029323685A6902929A69B0
:102850000292029A1A6842F400721A607AE0012B1E
:102860000FD0022B1FD02268136843F480631360DB
:102870000023059323685A6905929B690593059B7C
:1028800068E02268136823F48063136000230393D5
:1028900023685A6903929A690392039A1A6842F468
:1028A00000721A6056E02268136823F48063136094
:1028B0002268136843F400631360002304932368C1
:1028C0005A6904929B690493049B43E02A4631466B
:1028D0002046FFF797FD002840F0CE8023681A6954
:1028E000636A1A70636A01336362238D013B238537
:1028F000638D9BB2013B9BB263852BE00095334611
:10290000002240492046FFF73FFB002840F0B680F8
:102910002268136843F40073136023681A69636ABA
:102920001A70626A531C6362238D013B2385638D99
:102930009BB2013B9BB2638523681B695370636A3A
:1029400001336362238D013B2385638D9BB2013B81
:102950009BB26385218D00297FD0032954D801299A
:10296000B4D00229CAD0009533460022254920461A
:10297000FFF70AFB002840F083802268136823F4E5
:102980008063136023681A69636A1A70636A01338B
:102990006362238D013B2385618D89B2013989B240
:1029A000618500953346002216492046FFF7ECFA70
:1029B000002867D12268136843F40073136023680A
:1029C0001A69636A1A70626A531C6362238D013B41
:1029D0002385638D9BB2013B9BB2638523681B6992
:1029E0005370636A01336362238D013B2385638DDA
:1029F0009BB2013B9BB26385ACE700BF02001000B5
:102A00000000FFFF040001002A4631462046FFF780
:102A1000F9FC002838D123681A69636A1A70626A5F
:102A2000531C6362238D013B2385638D9BB2013B65
:102A30009BB263852368596911F0040F8AD01B6922
:102A40005370636A01336362238D013B2385638D79
:102A50009BB2013B9BB263857CE7202384F83D3029
:102A6000002384F83E3084F83C30ACE60227AAE626
:102A70000227A8E60127A6E60127A4E60127A2E689
:102A80000127A0E601279EE601279CE62DE9F043F9
:102A900083B004460F46904699460C9EFFF776F8A1
:102AA000054694F83D00C0B2202803D0022003B0B0
:102AB000BDE8F0830095192301224B492046FFF71A
:102AC00063FA002840F0898094F83C30012B00F034
:102AD0008680012384F83C3023681A6812F0010FC5
:102AE00003D11A6842F001021A602268136823F4C5
:102AF00000631360212384F83D30402384F83E3086
:102B0000002323640A9B6362BDF82C306385638DC8
:102B10002385364BE362019500964B464246394683
:102B20002046FFF7D9FB00285BD1238D002B35D041
:102B30002A4631462046FFF7A5FB20BB626A236880
:102B400012781A61626A531C6362218D013989B25D
:102B50002185638D9BB2013B9BB2638523685869D5
:102B600010F0040FE1D00029DFD052781A61636AB7
:102B700001336362238D013B2385638D9BB2013B4F
:102B80009BB26385D1E7236C042B01D001208EE733
:102B90002268136843F400731360F7E72A4631464E
:102BA0002046FFF705FC50B1236C042B01D0012017
:102BB0007DE72268136843F400731360F7E7226827
:102BC000136843F400731360202384F83D3000231E
:102BD00084F83E3084F83C3069E7022067E7022041
:102BE00065E7012063E700BF020010000000FFFF5F
:102BF00090F83D0070470000002800F0E08170B5BB
:102C000082B00446036813F0010F3BD09F4B9B68D2
:102C100003F00C03042B2CD09C4B9B6803F00C039B
:102C2000082B21D06368B3F5803F4FD0B3F5A02FB8
:102C300052D0964B1A6822F480321A601A6822F435
:102C400080221A606368002B50D0FEF79FFF054674
:102C50008E4B1B6813F4003F14D1FEF797FF401B07
:102C60006428F5D90320B1E1884B5B6813F4800F29
:102C7000D8D0864B1B6813F4003F03D06368002B49
:102C800000F09F81236813F0020F54D07F4B9B68A4
:102C900013F00C0F3ED07D4B9B6803F00C03082B08
:102CA00033D0E368002B68D0794B01221A60FEF71D
:102CB0006DFF0546754B1B6813F0020F54D1FEF7EC
:102CC00065FF401B0228F5D903207FE16F4A136896
:102CD00043F480331360B5E76C4B1A6842F48022EA
:102CE0001A601A6842F480321A60ABE7FEF74EFFB2
:102CF0000546664B1B6813F4003FC3D0FEF746FF42
:102D0000401B6428F5D9032060E1604B5B6813F435
:102D1000800FC6D15D4B1B6813F0020F03D0E36830
:102D2000012B40F05081594A136823F0F8032169C0
:102D300043EAC1031360236813F0080F42D06369AC
:102D40006BB3534B0122C3F8802EFEF71FFF0546DD
:102D50004E4B5B6F13F0020F34D1FEF717FF401B91
:102D60000228F5D9032031E1484A136823F0F8031B
:102D7000216943EAC1031360DDE7454B00221A6075
:102D8000FEF704FF0546414B1B6813F0020FD2D03B
:102D9000FEF7FCFE401B0228F5D9032016E13C4B50
:102DA0000022C3F8802EFEF7F1FE0546374B5B6F1D
:102DB00013F0020F06D0FEF7E9FE401B0228F5D9FA
:102DC000032003E1236813F0040F77D02F4B1B6C13
:102DD00013F0805F33D1002301932C4B1A6C42F027
:102DE00080521A641B6C03F080530193019B0125F0
:102DF000284B1B6813F4807F23D0A368012B34D0A9
:102E0000052B38D0214B1A6F22F001021A671A6F76
:102E100022F004021A67A368002B3DD0FEF7B6FE2D
:102E200006461A4B1B6F13F0020F46D1FEF7AEFE9B
:102E3000801B41F288339842F3D90320C6E0002575
:102E4000D6E7144A136843F480731360FEF79EFEBE
:102E50000646104B1B6813F4807FCED1FEF796FE1A
:102E6000801B0228F5D90320B0E0084A136F43F015
:102E700001031367CFE7054B1A6F42F004021A678C
:102E80001A6F42F001021A67C5E700BF003802401E
:102E90000000474200700040FEF778FE0646524BA5
:102EA0001B6F13F0020F08D0FEF770FE801B41F27B
:102EB00088339842F3D9032088E0EDB9A369002B49
:102EC00000F08380484A926802F00C02082A51D030
:102ED000022B17D0454B00221A66FEF757FE044618
:102EE000414B1B6813F0007F42D0FEF74FFE001BE2
:102EF0000228F5D9032069E03B4A136C23F0805384
:102F00001364DBE7394B00221A66FEF73FFE0546E5
:102F1000354B1B6813F0007F06D0FEF737FE401BD1
:102F20000228F5D9032051E0E369226A1343626A5B
:102F300043EA8213A26A5208013A43EA0243E26A70
:102F400043EA0263284A5360284B01221A66FEF7BF
:102F50001DFE0446244B1B6813F0007F06D1FEF7CC
:102F600015FE001B0228F5D903202FE000202DE0DC
:102F700000202BE0012B2BD01B4B5B6803F480015E
:102F8000E269914226D103F03F02216A8A4223D1AD
:102F9000616A47F6C0721A40B2EB811F1ED103F47A
:102FA0004031A26A5208013AB1EB024F18D103F046
:102FB0007063E26AB3EB026F14D1002006E00120D7
:102FC0007047012002E0012000E0002002B070BD47
:102FD0000120FBE70120F9E70120F7E70120F5E7F1
:102FE0000120F3E70120F1E70038024000004742EA
:102FF00008B52F4B9B6803F00C03082B01D02D481C
:1030000008BD2B4B5A6802F03F025B6813F4800F37
:103010002AD0274B5968C1F3881C4FEA4C11B1EBF9
:103020000C006EEB0E0E4FEA8E1343EA90638101A3
:10303000091A63EB0E03DB0043EA5173C90011EB7D
:103040000C0C43F10003990200234FEA8C2041EA63
:103050009C51FDF7D5F8164B5B68C3F30143013370
:103060005B00B0FBF3F0CBE7114B5968C1F3881C50
:103070004FEA4C11B1EB0C006EEB0E0E4FEA8E13C3
:1030800043EA90638101091A63EB0E03DB0043EA14
:103090005173C90011EB0C0C43F10003990200239A
:1030A0004FEA8C2041EA9C51FDF7AAF8D3E700BF14
:1030B000003802400024F400002800F09B8070B526
:1030C0000D4604464F4B1B6803F007038B4208D2A2
:1030D000CBB24C4A1370136803F007038B4240F0E5
:1030E0008B80236813F0020F17D013F0040F04D065
:1030F000454A936843F4E0539360236813F0080F44
:1031000004D0414A936843F4604393603E4A936815
:1031100023F0F003A1680B439360236813F0010FC1
:1031200032D06368012B21D09A1E012A25D9364A54
:10313000126812F0020F61D033498A6822F003024C
:1031400013438B60FEF722FD06462F4B9B6803F06E
:103150000C036268B3EB820F16D0FEF717FD801BDD
:1031600041F288339842F0D9032042E0264A12689F
:1031700012F4003FE0D101203BE0234A126812F034
:10318000007FD9D1012034E01E4B1B6803F00703F8
:10319000AB4207D9EAB21B4B1A701B6803F0070356
:1031A000AB422DD1236813F0040F06D0164A936862
:1031B00023F4E053E1680B439360236813F0080F96
:1031C00007D0114A936823F46043216943EAC1039D
:1031D0009360FFF70DFF0C4B9B68C3F303130B4A7F
:1031E000D35CD8400A4B18600A4B1868FEF782FC83
:1031F000002070BD012070470120FAE70120F8E7A8
:103200000120F6E7003C02400038024034BD0008CF
:10321000040000200C000020014B1868704700BF1C
:103220000400002008B5FFF7F7FF044B9B68C3F3C9
:103230008223034AD35CD84008BD00BF0038024057
:1032400044BD000808B5FFF7E7FF044B9B68C3F3D4
:103250004233034AD35CD84008BD00BF0038024067
:1032600044BD0008026802F10C0353E8003F23F458
:1032700090730C3242E800310029F3D1026802F168
:10328000140353E8003F23F00103143242E80031F5
:103290000029F3D1036B012B05D0202380F83E30A9
:1032A000002303637047026802F10C0353E8003FF8
:1032B00023F010030C3242E800310029F3D1ECE78F
:1032C00090F83D30DBB2212B01D00220704783689B
:1032D000B3F5805F17D0036A5A1C02621A7803683C
:1032E0005A60C38C9BB2013B9BB2C3844BB902684A
:1032F000D36823F08003D3600268D36843F04003AF
:10330000D360002070470369002BE4D1036A1B8857
:103310000268C3F308035360036A02330362E0E701
:1033200038B504460268136923F44053C1680B435F
:10333000136183680269134342691343C2691A43E4
:103340000168CB6823F4164323F00C031343CB60CE
:103350000268536923F4407381690B435361036826
:10336000314A934206D002F58062934202D0FFF7C1
:1033700059FF01E0FFF766FFE369B3F5004F29D07D
:103380000021031849411B1841F10001C90041EA1D
:103390005371DB00181863684FEA83024FEA937396
:1033A00041F10001FCF72CFF204DA5FB0032510933
:1033B000642303FB11031B013233A5FB03235B09C9
:1033C00003F0F00202EB011203F00F032168134433
:1033D0008B6038BD0023021843EB0301121841F142
:1033E0000001C90041EA5271D200101841F10001F8
:1033F000626892185B41FCF703FF0C4DA5FB00329D
:103400005109642303FB1103DB003233A5FB0323C3
:103410005B095A0002F4F87202EB011203F0070391
:10342000216813448B60D4E7001001401F85EB51E5
:103430002DE9F84305460F4616469946DDF82080EB
:103440002C68246837EA04030CBF4FF0010C4FF0DE
:10345000000CB4452DD1B8F1FF3FF1D0B8F1000F09
:1034600005D0FEF793FBA0EB09004045E8D92A6898
:1034700002F10C0353E8003F23F4D0730C3242E80E
:1034800000310029F3D12A6802F1140353E8003F08
:1034900023F00103143242E800310029F3D1202344
:1034A00085F83D3085F83E30002385F83C30032018
:1034B00000E00020BDE8F88358B310B5044690F84A
:1034C0003D300BB3242384F83D302268D36823F4C5
:1034D0000053D3602046FFF723FF2268136923F4CB
:1034E000904313612268536923F02A0353612268D1
:1034F000D36843F40053D36000202064202384F871
:103500003D3084F83E3010BD80F83C30FEF788FA3C
:10351000D8E7012070472DE9F04182B01E4690F8AF
:103520003D30DBB2202B54D104460D469046002995
:1035300053D0002A53D090F83C30012B51D00123B6
:1035400080F83C3000230364212380F83D30FEF7EF
:103550001DFB0746A4F82480A4F82680A368B3F5D1
:10356000805F05D04FF00008002384F83C3012E063
:10357000236913B14FF00008F6E7A8460025F3E7EA
:1035800038F8023B2268C3F308035360E28C92B21E
:10359000013A92B2E284E38C9BB273B100963B464F
:1035A000002280212046FFF743FFE0B9002DE7D03D
:1035B00015F8012B23685A60E8E700963B46002285
:1035C00040212046FFF734FF78B9202384F83D30AE
:1035D00000E0022002B0BDE8F0810120FAE70120FE
:1035E000F8E70220F6E70320F4E70320F2E770474C
:1035F00008B50168CA6822F04002CA60202280F83B
:103600003D20FFF7F4FF002008BD7047704708B564
:10361000806B0023C385C384FFF7F8FF08BD7047A4
:1036200090F83E30DBB2222B67D18368B3F5805F20
:103630004DD0826AB3F5805F04D0002B54D103696A
:10364000002B51D103685B681370836A0133836276
:10365000C38D9BB2013B9BB2C385002B4FD100B5FC
:1036600083B00268D36823F02003D3600268D36874
:1036700023F48073D3600268536923F0010353611C
:10368000202380F83E30036B012B33D100230363EA
:10369000026802F10C0353E8003F23F010030C32E0
:1036A00042E800310029F3D103681A6812F0100FC4
:1036B00006D0002201921A6801925B680193019B77
:1036C000818DFFF7ACFF002003B05DF804FB0269B9
:1036D000002AAED1826A03685B68C3F308031380D3
:1036E000836A02338362B3E703685B6803F07F0396
:1036F0001370AAE7FFF789FFE5E702207047002073
:103700007047000030B583B0044602681368D06883
:10371000516913F00F0505D113F0200F02D010F0FE
:10372000200F19D12DB111F0010119D110F4907FA2
:1037300016D1216B01297DD013F0800F03D010F03A
:10374000800F40F0158113F0400F03D010F0400FB0
:1037500040F0128103B030BD2046FFF761FFF9E76A
:1037600013F0010F06D010F4807F03D0226C42F0DA
:103770000102226413F0040F04D019B1226C42F04C
:103780000202226413F0020F04D019B1226C42F03D
:103790000402226413F0080F07D010F0200F00D1AC
:1037A00019B1226C42F008022264226C002AD1D0A6
:1037B00013F0200F02D010F0200F29D123685B698D
:1037C00003F04003226C12F0080F00D163B32046CF
:1037D000FFF748FD23685B6913F0400F20D0226893
:1037E00002F1140353E8003F23F04003143242E88F
:1037F00000310029F3D1A36B73B1614A1A65A06B44
:10380000FEF794FA0028A5D0A06B036D9847A1E7B6
:103810002046FFF705FFD1E72046FFF7F7FE99E7BF
:103820002046FFF7F3FE95E72046FFF7EFFE002363
:1038300023648FE713F0100F3FF47EAF10F0100FEA
:103840003FF47AAF00230193136801935368019307
:10385000019B536913F0400F50D0A26B13685B6853
:103860009BB2002B3FF476AFA18D99427FF672AFE9
:10387000E385D369B3F5807F37D0226802F10C036A
:1038800053E8003F23F480730C3242E800310029F2
:10389000F3D1226802F1140353E8003F23F001033F
:1038A000143242E800310029F3D1226802F11403F6
:1038B00053E8003F23F04003143242E8003100296E
:1038C000F3D1202384F83E3000232363226802F1E1
:1038D0000C0353E8003F23F010030C3242E80031A0
:1038E0000029F3D1A06BFEF7D7F9A18DE38D9BB230
:1038F000C91A89B22046FFF792FE2BE7A18DE38D0E
:103900009BB2C91A89B2E38D9BB2002B3FF422AF60
:1039100000293FF41FAF226802F10C0353E8003F77
:1039200023F490730C3242E800300028F3D122686F
:1039300002F1140353E8003F23F00103143242E87C
:1039400000300028F3D1202384F83E300023236385
:10395000226802F10C0353E8003F23F010030C32FD
:1039600042E800300028F3D12046FFF758FEF1E688
:103970002046FFF7A5FCEDE62046FFF739FEE9E615
:103980000F360008014B1868704700BF1000002078
:1039900070B50D4E0D4D761BB61006D0002455F8AF
:1039A000043B01349847A642F9D1094E094D761BD4
:1039B00007F06AFDB61006D0002455F8043B013428
:1039C0009847A642F9D170BD78C1000878C10008B7
:1039D00080C1000878C10008830730B548D0541E64
:1039E000002A3FD0CAB2034601E0013C3AD303F8B3
:1039F000012B9D07F9D1032C2DD9CDB245EA052520
:103A00000F2C45EA054536D9A4F1100222F00F0C1F
:103A100003F1200EE6444FEA121C03F1100242E9C2
:103A2000045542E9025510327245F8D10CF10102F9
:103A300014F00C0F03EB021204F00F0C13D0ACF1D6
:103A4000040323F003030433134442F8045B93425A
:103A5000FBD10CF003042CB1CAB21C4403F8012BB7
:103A60009C42FBD130BD64461346002CF4D1F9E7EB
:103A700003461446BFE71A46A446E0E70FB400B574
:103A8000074983B004AB086853F8042B816801939D
:103A900001F09CFD03B05DF804EB04B0704700BF7B
:103AA0001000002070B5054688B008460C46FCF7AB
:103AB00047FD224EAA6B059001214318CDE906610E
:103AC00004A8022104940393AC680190029122B3EC
:103AD000636E13F0010FB4F90C309AB201D198055E
:103AE00025D5910406D4626E43F4005322F40052AB
:103AF000A3816266284601AA214604F041FE636E56
:103B0000002814BF4FF0FF350A25DA0702D4A38935
:103B10009B0506D5284608B070BD284604F032FC47
:103B2000D6E7A06D04F0CEFF284608B070BDA06DAA
:103B300004F0C6FFB4F90C309AB2D2E750BD0008C9
:103B4000024B01461868FFF7ADBF00BF1000002010
:103B50000EB410B59DB06FF000411FABCDE906016A
:103B60000491094953F8042B0290084C086801930A
:103B700002A9059400F00CF8029B00221A701DB0F7
:103B8000BDE8104003B07047100000200802FFFF9E
:103B90002DE9F04FD5B00C460C9191460E930A904A
:103BA00004F086FF036817931846FCF7C9FCA38945
:103BB0001690190603D52369002B00F08B8700248B
:103BC0002BAB4D46CDE92944CDE91944CDE91B4441
:103BD0001294289398461894002308940024CDE961
:103BE00014342B78002B00F0DD81AA4604E01AF88B
:103BF000013F002B00F01681252BF8D1BAEB05060A
:103C000040F014819AF80030002B00F0CB810023A3
:103C10004FF0FF329AF801608DF8833009930AF172
:103C2000010A07921F462B244FF020090AF1010ACE
:103C3000A6F120035A2B00F22D81DFE813F0BA021F
:103C40002B012B01B5022B012B012B016A002B014B
:103C50002B014F02E3022B015A02C9022B01C402BD
:103C60005B005B005B005B005B005B005B005B007C
:103C70005B002B012B012B012B012B012B012B01B5
:103C8000BF012B011A028600BF01BF01BF012B013A
:103C90002B012B012B01B0022B012B01C3002B01A7
:103CA0002B012B0124022B015F022B012B013C076E
:103CB0002B012B012B012B012B012B012B012B01A4
:103CC000BF012B011A028800BF01BF01BF01A3027F
:103CD000880081002B0196022B018202C500700230
:103CE00081002B0124027E0039072B012B011907CB
:103CF0002B017E00A6F1300300221AF8016B02EBC3
:103D0000820203EB4202A6F13003092BF5D9099296
:103D10008EE7DDF828B0584604F0CAFE43681B93CE
:103D20001846FCF70DFC1C900646584604F0C0FEF1
:103D300083681993002E40F07A869AF8006075E740
:103D40009AF8006047F0200770E747F01007BA06BE
:103D50000E9B40F18081073323F007031A465B680E
:103D600052F8084B0E929946002BC0F25F85079BD4
:103D7000013301F01F8054EA090327F0800B00F0A3
:103D8000E3840A2C79F1000380F081873034012329
:103D90008DF84F415F460B930DF24F1507990B9825
:103DA0009DF8832081424FF00003B8BF01460D9378
:103DB00006910F9313931093002A7CD0069B013336
:103DC000069378E047F0100717F0200900F03481DF
:103DD0000E9B073323F00703D3F8049053F8084BE6
:103DE0000E9327F4806B002300228DF88320079A1E
:103DF000511C00F00D8254EA09012BF0800740F0BD
:103E00000682002A41F01080002B40F0A2841BF0B3
:103E100001030B9300F0378530238DF84F310DF2FD
:103E20004F15BBE7BAEB050600F0BC802A9B334474
:103E30002A93299B0133072BC8E90056299305DCF7
:103E400008F10808089B33440893DBE60C990A98AC
:103E500028AA06F039F880B90DF1AC08F2E70C9900
:103E60000A9828AA06F030F8002800F08C800D9BF4
:103E70001BB10D990A9804F07DFB0C9B9B8913F0F4
:103E8000400F089B18BF4FF0FF330893089855B0B8
:103E9000BDE8F08F002E00F0858000228DF8EC60E8
:103EA0008DF88320012306930D920B9307920F92B6
:103EB000139210923BAD17F0020302D00699023123
:103EC000069117F0840B07D109990698A1EB000918
:103ED000B9F1000F00F315832A9C8AB1299A0DF1DC
:103EE000830101320134C8F80010072A4FF00101A4
:103EF0002A942992C8F8041000F3468308F10808B0
:103F000083B1299B21AA01330234C8F80020072B72
:103F10004FF002022A942993C8F8042000F3488342
:103F200008F10808BBF1800F00F00E82079B0B9A86
:103F3000A3EB020BBBF1000F00F34F82FB0500F176
:103F4000A5810B9BC8F804301C44299BC8F800507D
:103F50000133072B2A94299300F3C78208F108083C
:103F60007B0705D5099B069A9D1A002D00F32C832B
:103F7000DDE9083206998A42ACBF9B185B180893AA
:103F8000002C7FF46CAF002329930D9B1BB10D997E
:103F90000A9804F0EFFA0DF1AC0855462B78002B87
:103FA0007FF423AE2A9B002B3FF467AF0C9C0A984A
:103FB00028AA214605F088FFA38960E70E9B0733F6
:103FC00023F00702F2E80234CDE91434DDE91434B9
:103FD00024F000440E92994618462146A74B4FF014
:103FE000FF32FDF75DF8002840F06284A34B48469D
:103FF00021464FF0FF32FDF735F8002840F0588495
:10400000DDE9140100220023FDF722F8002840F02A
:10401000AD879DF883209A4D9A4B27F080070321A6
:10402000472EC8BF1D4600230D9306910B910793A1
:104030000F9313931093BFE617F0100340F02E84F4
:1040400017F0400200F054870E9A52F8044B0E927B
:104050009946A4B2C5E653F8044B0E93FB0600F153
:1040600018847D0640F1128444F3C0394B4624B2D3
:104070007AE60E9B002253F8041B8DF883208DF8FE
:10408000EC100E930EE70E9C079B54F8045B4FF068
:1040900000098DF88390002D00F0D5865A1C00F0A1
:1040A00052851A4649462846FCF7BAFA0D90002870
:1040B00001F057800D9BCDF81C905B1B0B930E9469
:1040C00023EAE3739DF883200693CDF83490CDF86E
:1040D0003C90CDF84C90CDF840906DE60E9B53F897
:1040E000042B0992002A80F2C983099A0E93524246
:1040F00009929AF8006047F0040797E547F0100B23
:104100001BF0200900F081830E9B073323F0070387
:10411000D3F8049053F8084B0E93012364E60E9BEA
:1041200053F8044B0E93302378268DF88430564B89
:10413000189347F0020B8DF885604FF000090223B9
:1041400052E6BD0600F18284FC0600F17386780613
:1041500000F13C87B90540F16D860E9B089953F834
:10416000042B0E931170554618E79AF800606C2ED8
:1041700003BF9AF8016047F020070AF1010A47F0EF
:10418000100753E59AF80060682E03BF9AF80160A3
:1041900047F400770AF1010A47F0400746E59AF82C
:1041A000006047F0080741E59AF8006047F0010712
:1041B0003CE59DF88330002B7FF4BFAD9AF800609A
:1041C0008DF8839032E59AF8006047F080072DE57E
:1041D000524612F8016B2A2E01F0CD81A6F1300370
:1041E000092B924698BF002201F288801AF8016BD1
:1041F00002EB820203EB4202A6F13003092BF5D950
:10420000079215E59AF800608DF883400EE5BB46ED
:10421000012B3FF4B6AD022B54AD12D1189A04F025
:104220000F032409D35C05F8013D44EA09744FEA01
:10423000191954EA0903F2D154AB5B1B5F460B9387
:10424000ACE504F00703E40844EA49744FEAD909ED
:10425000303354EA09012A4605F8013DF1D11BF03B
:10426000010FE9D0302BE7D03023023A05F8013CAA
:1042700054AB9B1A5F460B9315468FE5FFFFEF7F0C
:1042800054BD000858BD000864BD0008652E40F309
:10429000E680DDE9140100220023FCF7CFFE0028B0
:1042A00000F0CD81299BBF4AC8F8002001330134BA
:1042B0000122072B2A942993C8F8042000F37D8556
:1042C00008F10808229B129A934280F2D382169B2F
:1042D000179A1C44C8E90023299B2A940133072B11
:1042E000299300F3EB8308F10808129B5D1E002D53
:1042F0007FF736AE102D299BDFF8AC9240F36E8528
:1043000049462246B946DDF828B00C9C10260F46D7
:1043100005E008F10808103D102D40F35B850133DE
:104320001032072BC8E90076CDE92932F1DD28AA41
:104330002146584605F0C8FD00287FF498ADDDE918
:1043400029320DF1AC08E6E7099B069AA3EB020BB4
:10435000BBF1000F7FF7EAADBBF1100F299ADFF830
:1043600048922CDD1D9621464E460C9CDDF8289087
:10437000102306E0ABF1100BBBF1100F08F1080899
:104380001ADD01321031072AC8E90063CDE929217D
:10439000F0DD28AA214648460DF1AC0805F094FD51
:1043A00000287FF464ADABF1100BBBF1100FDDE919
:1043B00029214FF01003E4DCB1461D9E0C4601326A
:1043C0005C44072ACDE92924C8F80090C8F804B055
:1043D00000F31D8508F10808A8E5BBF1100F299A24
:1043E000DFF8C4912DDD41462046A8464C460C9D81
:1043F000DDF82890102306E0ABF1100BBBF1100F95
:1044000001F1080119DD01321030072AC1E900432A
:10441000CDE92920F0DD28AA2946484605F054FDBB
:1044200000287FF424ADABF1100BBBF1100FDDE9D8
:1044300029202BA94FF01003E5DC4546A14688460C
:10444000044601325C44072ACDE92924C8F80090CB
:10445000C8F804B000F3CC8108F108086EE5129B9F
:10446000012B40F37C81299EC8F8005001360134AD
:104470000123072E2A942996C8F8043000F3E0811E
:1044800008F10808169B179A01361C44072EC8E944
:104490000023CDE9296400F3E08108F10808DDE993
:1044A000140100220023FCF7C9FD002840F07481AC
:1044B000129B0136013B01351C44072EC8F8005001
:1044C0002996C8F804302A9400F3598108F10808A5
:1044D0001A9BC8F8043001361C44072E24ABCDE9E2
:1044E0002964C8F800307FF739AD0C990A9828AADA
:1044F00005F0EAFC00287FF4BAAC2A9C0DF1AC0868
:104500002EE5B9F1100FDDE929212BDDCDE91D3BA9
:104510001F96DDF828B04E461024A9460C9D04E0F5
:10452000103E102E08F1080817DD01321F4B103124
:10453000072AC8E90034CDE92921F1DD28AA294656
:1045400058460DF1AC0805F0BFFC00287FF48FAC95
:10455000103E102EDDE92921E7DCDDE91D3B4D464B
:10456000B1461F9EC8F80490013209EB0104072AE6
:104570000E49C8F80010CDE9292400F3FF839DF807
:10458000832008F10808A8E40C990A981D9328AA2A
:1045900005F09AFC00287FF46AAC2A9C1D9B0DF163
:1045A000AC08ADE494BD0008A8BD000898BD0008A3
:1045B0000C990A9828AA05F087FC00287FF457ACCC
:1045C0002A9C0DF1AC08ADE4102D299B21DD0A9F3A
:1045D000DDF83090102604E0103D102D08F1080899
:1045E00017DD0133B04A1034072BC8E90026CDE9A6
:1045F0002934F1DD28AA494638460DF1AC0805F00A
:1046000063FC00287FF433AC103D102DDDE9293424
:10461000E7DC0133A44AC8F804502C44072BCDE949
:104620002934C8F800207FF7A3AC0C990A9828AA6F
:1046300005F04AFC00287FF41AAC2A9C98E42299E1
:10464000002940F36683DDF84090129B9945A8BF8E
:104650009946B9F1000F0BDD299B01334C44072B20
:10466000C8E900592A94299300F32F8508F1080816
:10467000109EB9F1000FA8BFA6EB0906002E00F3AB
:104680003882DDF840B07805AB4400F16682229BA9
:10469000129A934202DBF90740F18E84169A179919
:1046A0001444C8E90012299A2A940132072A29924F
:1046B00000F3188508F10808129AAE18A6EB0B064D
:1046C000D51AAE42A8BF2E46002E0DDD299BC8F894
:1046D00000B001333444072BC8F804602A942993AE
:1046E00000F31A8608F10808002EA8BFAD1B002DA4
:1046F0007FF736AC102D299BDFF8B09140F36E8325
:1047000049462246B946DDF828B00C9C10260F46D3
:1047100005E008F10808103D102D40F35B830133DC
:104720001032072BC8E90076CDE92932F1DD28AA3D
:104730002146584605F0C8FB00287FF498ABDDE918
:1047400029320DF1AC08E6E7079B002B7FF41EAB86
:104750005F46002307930B9354ADFFF71FBBFA0787
:104760003FF581AE299EC8F800500136013401237F
:10477000072E2A942996C8F804307FF7A7AE0C9923
:104780000A9828AA05F0A0FB00287FF470ABDDE9A9
:1047900029640DF1AC089BE6129B5D1E002D7FF78E
:1047A00097AE102DDFF8049140F3968322460797C9
:1047B0000A9C0C9F4FF0100B05E008F10808103D13
:1047C000102D40F3878301361032072EC8E9009B75
:1047D000CDE92962F1DD28AA3946204605F074FBAF
:1047E00000287FF444ABDDE929620DF1AC08E6E76F
:1047F0000C990A9828AA05F067FB00287FF437ABCC
:104800002A9C0DF1AC08FFF799BB1BF0100340F098
:1048100028811BF0400200F079830E9A52F8044B75
:104820000E929946A4B20123FFF7DEBA2D2364420B
:104830008DF8833069EB4909BB460123FFF7D7BAEE
:104840000C990A9828AA05F03FFB00287FF40FABCB
:10485000DDE929640DF1AC0814E60C990A9828AA40
:1048600005F032FB00287FF402ABDDE929640DF18D
:10487000AC0814E6FD077FF573AB28E59AF80060F5
:104880000E93FFF7D3B954ADFFF788BAB80500F11E
:10489000A6834FEAE4794B46FFF766BA0E9B53F8BE
:1048A000044B0E93FFF79DBA98BD0008A8BD000801
:1048B000DDE9140102460B46FCF7F2FB002840F04C
:1048C0000F86612E00F04585412E00F06D84079B18
:1048D000013326F02003069300F0A983472B00F054
:1048E0008885DDE9141247F480730F931346002B7B
:1048F000C0F292850B9300231D938B460D93069B6C
:10490000462B00F0FD83452B00F04485079901916B
:1049100026A9049123A9039122A9029102210B9BAC
:104920000A9800915A4602F007FD069B472B054660
:1049300040F0318617F0010FB9460F9F40F0FC841C
:10494000269B5B1B1293069B472B00F08283069BE2
:10495000462B00F01284229B1093109B069A013B79
:10496000412A229300F0AD85F2B20021002BB8BF9E
:10497000109B8DF89020BABFC3F101032D222B228A
:10498000092B8DF8912040F38D850DF19F04B64FD2
:104990002246104687FB0321DA17C2EBA10202EB85
:1049A0008201A3EB4101303100F8011C1946632953
:1049B000134600F1FF32ECDC3033D9B2831E9C4247
:1049C00002F8011C40F2F18513460DF1920201E05C
:1049D00013F8011B02F8011B9C42F9D10DF1A10350
:1049E0000DF192021B1A134424AA9B1A1A93129BCC
:1049F0001A9A012B1A440B9240F39E850B9B169A30
:104A000013440B930B9A002329F4806722EAE27285
:104A100047F480770F930692139310931D9B002BFE
:104A200040F03F839DF883200793FFF7C5B9199B9A
:104A3000002B3FF482A9199B1B78002B3FF47DA922
:104A40009AF8006047F48067FFF7F0B80E9B08986B
:104A500053F8041B0E93C217C1E900025546FFF735
:104A60009DBA0E9B53F8044B0E930123FFF7BCB97C
:104A70007E4B189317F0200900F0EC800E9B073353
:104A800023F00703D3F8049053F8084B0E93F8076C
:104A900009D554EA090306D030238DF8856047F024
:104AA00002078DF8843027F4806B0223FFF79CB94E
:104AB000BB46FFF725BB6E4B1893DBE70C990A98B2
:104AC00028AA05F001FA00287FF4D1A92A9C0DF14B
:104AD000AC080AE40A98402104F066F80C9B1860C0
:104AE0001861002800F065850C9A40235361FFF798
:104AF00066B8102E299BDFF87C9140F32982484646
:104B000042462146A846B9460A9C0C9D4FF0100B20
:104B1000074604E00832103E102E40F313820133A2
:104B20001031072BC2E9007BCDE92931F2DD28AA3B
:104B30002946204605F0C8F900287FF498A9DDE948
:104B400029312BAAE7E72846CDF81C900E94FBF7F5
:104B5000F7FC03460B90FFF7B3BA129BCDF82CA0DD
:104B60004246DDF84C801097EB1807935E46199F7C
:104B7000DDF87090DDF828A0DDF830B00F9B1395BC
:104B80002146B8F1000F2FD0002B30D1013F08F1A2
:104B9000FF381B9BC2E90039299B01334944072B8D
:104BA0002A91299368DC0832079B38789B1B834243
:104BB000A8BF0346002B1C460BDD29980130194481
:104BC0000728C2E900632A91299000F314813878FC
:104BD0000832002CACBF051B0546002D0BDC06443B
:104BE0000F9BB8F1000FCFD1002B00F023820F9B59
:104BF000013B0F93CDE7102D29981DDD102404E013
:104C0000103D102D02F1080216DD0130194B103154
:104C10000728C2E90034CDE92901F1DD28AA594667
:104C2000504605F051F900287FF421A9103D102DC0
:104C3000DDE929012BAAE8DC01300E4B556029443F
:104C40000728CDE92901136000F332823878083251
:104C50000644C5E717F0100300F0A1800E9B53F83F
:104C6000044B0E9313E700BF6766666664BD0008D9
:104C700078BD0008A8BD000828AA5946504605F08E
:104C800023F900287FF4F3A82A992BAA8CE70BF4C8
:104C9000806300220696CDF82CA0CDF8348054AF66
:104CA000DDF864809A4616460CE00023204649460B
:104CB0000A22FBF7A5FA0A2C79F100031BD304465C
:104CC00089462F4620460A2200234946FBF798FAD8
:104CD00030327D1E013607F8012CBAF1000FE4D006
:104CE00098F800309E42E0D1FF2EDED00A2C79F1F8
:104CF000000380F0408154AB5B1BDDF82CA0CDF8A5
:104D000064801296DDF83480069E0B935F46FFF7B1
:104D100045B8299BBC4AC8F8002001330134012260
:104D2000072B2A942993C8F8042000F3388108F14E
:104D30000808002940F09780129A07F001031343F6
:104D40003FF40EA9169B17991A19C8E90013299B5D
:104D50002A920133072B299300F3478108F10808B1
:104D60001299C8F8005001338C18072BCDE929346B
:104D7000C8F804107FF7F2A8FFF7B7BB0C990A98A0
:104D80001D9328AA05F0A0F800287FF470A89DF8CC
:104D900083202A9C1D9B0DF1AC08FFF79EB817F0ED
:104DA000400200F0C2800E9A52F8044B0E929946CF
:104DB000A4B26CE6BB46FEF7E4BF0C990A9828AA99
:104DC00005F082F800287FF452A82A9C0DF1AC0867
:104DD000FFF778BA14463A464F46914601332C44C1
:104DE000072BC8F80090C8F80450CDE929347FF7A4
:104DF000B5A8FFF77ABB28AA5946504605F064F8D3
:104E000000287FF434A838782A992BAAE1E60C9977
:104E10000A9828AA05F058F800287FF428A82A9CA8
:104E20000DF1AC08FFF782B8012BBB467FF4F3A964
:104E3000FEF7ACBF0E9B089953F8042B5546116042
:104E40000E93FFF7ABB8062B294628BF062307951C
:104E50000D952A4606936D4D0E940B930F91139169
:104E60001091FEF7A9BF169B17981A19C8E90003FD
:104E7000299B2A920133072B299300F3B68008F16E
:104E800008080029BFF66CAF4E421031DFF8809160
:104E900080F297824146DDF828B0A84610240C9D88
:104EA00004E00831103E102E40F3898201331032A5
:104EB000072BC1E90094CDE92932F2DD28AA294661
:104EC000584605F001F800287EF4D1AFDDE929321B
:104ED0002BA9E7E7079F144601362C44072ECDE99E
:104EE0002964C8F80090C8F804507FF7EFAA46E498
:104EF0000E9B17F4007914BF53F8044B53F8044B7E
:104F00000E931CBF9146E4B2FEF76BBF0E9B1BF4E1
:104F1000007914BF53F8044B53F8044B0E931CBF95
:104F20009146E4B20123FEF75FBF0E9B17F40079B0
:104F300014BF53F8044B53F8044B0E931CBF914617
:104F4000E4B2A4E5454690463A460C464F469146A3
:104F500001333444072BCDE92934C8F80090C8F850
:104F6000046057DC08F10808FFF78BBB2D228DF891
:104F70008320FFF750B81C9B1B99ED1A1A46284650
:104F800004F070FF98F801300BB108F101082046D9
:104F900049460A2200230026FBF732F98FE60C99D6
:104FA0000A9828AA04F090FF00287EF460AF2299A6
:104FB0002A9C0DF1AC08BCE6129AAE18A6EB0B06C3
:104FC000D51AAE42A8BF2E46FFF78EBB0E9B08999E
:104FD00053F8042B0E9311805546FEF7DFBF44F3C0
:104FE000C0194B4664B2FEF7BFBE0C990A9828AAB6
:104FF00004F06AFF00287EF43AAFDDE929322299F5
:105000000DF1AC083DE700BF94BD00088CBD000861
:10501000A8BD00080C990A9828AA04F055FF00289A
:105020007EF425AF2A9C0DF1AC08FFF72ABB0623BE
:10503000079356E4DDE91235EB189E421997B34603
:10504000DDF82CA0109F90460C4628BF9B46FFF72A
:105050001EBB229B1093DA1C02DB079A934204DDED
:10506000023E26F02003069377E4109B129A9342A7
:10507000C0F2488119F0010F00F01182169A134412
:105080000B9319F4806F03D0109B002B00F3C781A2
:105090000B9B23EAE3730693672600230F93139376
:1050A000BCE42D2200238DF883200793FEF786BEF3
:1050B00028AA5946504604F007FF00287EF4D7AED0
:1050C00038782A992BAA06448AE50C990A9828AAC6
:1050D00004F0FAFE00287EF4CAAE2A9C0DF1AC085A
:1050E000FFF7C6BA0C990A9828AA04F0EDFE00282A
:1050F0007EF4BDAE229B2A9C0DF1AC08FFF7DCBA12
:105100000799019126A9049123A9039122A902914B
:1051100003210B9B0A9800915A4602F00DF903787F
:10512000302B054600F0F181229B079AB9461344C3
:105130000F9FEC180B99584600220023FBF77EFFC7
:1051400010B12346FFF7FDBB269BA342BFF4F9AB8A
:1051500030215A1C26921970269B9C42F9D8FFF7E1
:10516000F0BB079B9DF883200E9406930B9307904A
:105170000F9013901090FEF71FBE229A1092002AF3
:1051800040F3E081079909F001030B4340F0B78138
:10519000109B0B93662619F4806F40F041810B9BA6
:1051A00023EAE373069378E730238DF8843058239D
:1051B0008DF88530079B632B47F0020400F3BF8016
:1051C00000230D933BADDDE9141247F481730F9377
:1051D0001346002B2746C0F285800B9326F0200350
:1051E000069300238B461D93612E00F04081412ED3
:1051F0007FF485AB22AA0B99584604F0A3FD002248
:105200004FF07F53FBF7B2FC02460B46CDE910236B
:1052100000220023FBF712FF08B101232293AC4BBD
:105220000B93079BCDE912A6CDE91E78DDF82CA0E3
:10523000DDE9106703F1FF39AB46109506E0002267
:10524000002309F1FF39FBF7F9FEE8B9A14B002271
:1052500030463946FBF78AFC0F460646FBF736FF19
:105260000446FBF719FC0B46024639463046FBF76D
:10527000C5FA1AF80430B9F1FF3FD8464D460BF88D
:10528000013B06460F46DAD130463946924BDDF8EF
:1052900048A0139ECDF848800022A946DDF87C8006
:1052A000109D1E9FCDE91001FBF7F0FE002855D19F
:1052B000DDE91001884B0022FBF7C0FE08B1E107D1
:1052C0004CD44B46002B06DB01335B4430220BF8F9
:1052D000012B5B45FBD1ABEB0503B94612930F9F46
:1052E000FFF731BB26F020030693DDE914349B461B
:1052F00004F100430B932D231D9375E700230793BF
:10530000FEF796BC129B169A9A18109B0B92002BD4
:1053100040F3098167263EE70C990A9828AA04F011
:10532000D3FD00287EF4A3AD229D129B2A9C5D1B19
:105330000DF1AC08FFF7D8B9079BEC18FAE60A980C
:10534000591C03F031FC0546002800F026810D9021
:1053500039E730238DF88430782329E7129B269390
:105360000B9B1BF8012CD97B8A425B4609D130206C
:1053700003F8010C269B5A1E269213F8012C914229
:10538000F6D0392A0BBF0B9A0132927AD2B203F8C7
:10539000012CA0E707990B9B0A984C1C26A90491A5
:1053A00023A9039122A9029102215A460194009156
:1053B00001F0C2FF0546B9462C440F9FBAE64546A8
:1053C000884601333244072BCDE92932C8F80090D2
:1053D000C8F804607FF7C2AC0C990A9828AA04F0B8
:1053E00073FD00287EF443ADDDE929320DF1AC08F0
:1053F000B6E4079B002B08BF0123079347F4807393
:105400000F93159B002BC0F2B180DDF850B00D90CA
:105410000B931D90FFF77ABA00230D9365E767267B
:1054200019990B78FF2B00F0B2800024109A2046C7
:1054300003E001300131FF2B08D0934206DAD21A83
:105440004B78002BF5D10B780134F4E719911092C9
:1054500013900F940F9A139B1C9913440B9A01FB02
:1054600003230B9323EAE3730693FFF7D7BA22AA29
:105470000B99584604F066FC00224FF07F53FBF76F
:1054800075FB02460B46CDE9102300220023FBF7F3
:10549000D5FD08B101232293104B0B93C1E6109B5D
:1054A0000B93EEE5002963D130228DF892200DF1A7
:1054B0009302303302F8013B24ABD31A1A93FFF75F
:1054C00096BA06F10F02D2B20121FFF74FBA00BF20
:1054D00078BD0008000030400000E03F64BD0008D7
:1054E000159B384D002BB4BF2D229DF88320364BE1
:1054F000B8BF8DF8832027F08007FEF790BD169B7C
:10550000D31819440B91662645E60B99584600229C
:105510000023FBF793FD00287FF406AE079BC3F141
:105520000103229301E6C3F101031A4422EAE27364
:105530000B9206936726B0E519F0010F3FF462AABB
:10554000FFF75CBA079A09F0010959EA020304D18E
:105550000123069366260B939FE5169B01331A449D
:1055600022EAE2730B920693662696E50D90BCE65E
:105570000DF192029DE70E9B9AF80160924653F856
:10558000042B0E9342EAE2720792FEF74FBB002310
:105590000F9313935EE7079C0DE70C998B8943F0FB
:1055A000400213468A81FEF76ABC02231A93FFF772
:1055B0001EBA0A9A0C2313604FF0FF330893FEF7CC
:1055C00065BC00BF5CBD000860BD00082DE9F04F60
:1055D000D5B01C46079191460546099003F068FA3C
:1055E0000268179210460E94FAF7AAFF16901DB1A2
:1055F000AB6B002B00F02A82079A536EDD0740F157
:105600003881B2F90C2091B28F0409D4079B42F47F
:1056100000529A8191B21A465B6E23F4005353668E
:105620000E0740F1CB80079B1B69002B00F0C68062
:1056300001F01A030A2B00F0CF8000242BAB4D465B
:10564000CDE92944CDE91944CDE91B4412942893AE
:105650009846189400230B940024CDE914342B7839
:10566000002B00F09D81AA4604E01AF8013F002BB0
:1056700000F0C780252BF8D1BAEB050640F0C580B5
:105680009AF80030002B00F08B8100234FF0FF329E
:105690009AF801608DF883300A930AF1010A0892A2
:1056A0001F462B244FF020090AF1010AA6F120031E
:1056B0005A2B00F2ED80DFE813F0EB02EB00EB0079
:1056C000E602EB00EB00EB006A00EB00EB005C0293
:1056D0008002EB0067028A02EB0085025B005B0040
:1056E0005B005B005B005B005B005B005B00EB0052
:1056F000EB00EB00EB00EB00EB00EB007A01EB00C2
:10570000F801D2017A017A017A01EB00EB00EB009B
:10571000EB00E102EB00EB002D02EB00EB00EB00F5
:105720000202EB00A402EB00EB008307EB00EB00AE
:10573000EB00EB00EB00EB00EB00EB007A01EB0081
:10574000F801D4017A017A017A01C702D401CD01AE
:10575000EB00D402EB006C022F02B502CD01EB008E
:1057600002027E008007EB00EB006107EB007E0089
:10577000A6F1300300221AF8016B02EB820203EB60
:105780004202A6F13003092BF5D90A928EE7DDF823
:1057900024B0584603F08CF943681B931846FAF777
:1057A000CFFE1C900646584603F082F98368199391
:1057B000002E40F0CD869AF8006075E7079D0998A5
:1057C000294601F0ADFC002841F01C83A98901F0B5
:1057D0001A030A2B7FF431AF079AB2F90E30002B6F
:1057E000FFF62BAF536ED80702D4890541F13B81F8
:1057F0000799099823464A4655B0BDE8F04F01F095
:105800004FBCBAEB050600F0CB802A9B33442A93A9
:10581000299B0133072BC8E90056299305DC08F1C1
:1058200008080B9B33440B932AE70799099828AA89
:1058300004F002FC80B90DF1AC08F2E70799099871
:1058400028AA04F0F9FB002800F09B800D9B1BB1F7
:105850000998194602F08EFE079A536ED90740F157
:10586000EA8093895B0601F1D9820B9855B0BDE8B7
:10587000F08F079BB3F90C20900591B23FF5C4AEB1
:105880001D46986D03F01CF9B5F90C2091B2BBE6EA
:10589000002E00F0858000228DF8EC608DF88320CA
:1058A0000123CDE90C32069308920F9213921092C5
:1058B0003BAD17F0020302D006990231069117F0B2
:1058C000840B07D10A990698A1EB0009B9F1000FE2
:1058D00000F370832A9C8AB1299A0DF18301013269
:1058E0000134C8F80010072A4FF001012A942992C8
:1058F000C8F8041000F3B68308F1080883B1299BA7
:1059000021AA01330234C8F80020072B4FF002020D
:105910002A942993C8F8042000F3B28308F10808F8
:10592000BBF1800F00F06982089B0C9AA3EB020B7D
:10593000BBF1000F00F3AA82FB0500F100820C9B73
:10594000C8F804301C44299BC8F800500133072BC9
:105950002A94299300F3228308F10808780705D5D3
:105960000A9B069A9D1A002D00F39683DDE90A230F
:1059700006998A42ACBF9B185B180B93002C7FF4EE
:105980005DAF002329930D9B1BB10D99099802F07F
:10599000F1FD0DF1AC0855462B78002B7FF463AE7A
:1059A0002A9B002B41F0D3810023299354E70E9BBF
:1059B000073323F00702F2E80234CDE91434DDE9BD
:1059C000143424F000440E92994618462146B54BF3
:1059D0004FF0FF32FBF764FB002840F0EF84B14B3F
:1059E000484621464FF0FF32FBF73CFB002840F0D1
:1059F000E584DDE9140100220023FBF729FB0028E0
:105A000040F067879DF88320A74DA84B27F08007BB
:105A10000321472EC8BF1D4600230D9306910C910C
:105A200008930F9313931093002A3FF442AF069B01
:105A3000013306933DE7079B9B899A053FF512AF1B
:105A4000079CA06D03F03EF8A3890BE7099802F0CC
:105A500099FCD1E59AF8006047F0200724E647F06A
:105A60001007BA060E9B40F13B84073323F007036F
:105A70001A465B6852F8084B0E929946002BC0F20A
:105A80004C84089B013300F0D88254EA090327F0C4
:105A9000800B40F0D382089B002B40F0D4825F46FD
:105AA000002308930C9354AD1DE10E9B002253F884
:105AB000041B8DF883208DF8EC100E93F0E60E9CFD
:105AC000089B54F8045B4FF000098DF88390002D7B
:105AD00000F093855A1C00F051861A464946284624
:105AE000FAF79EFD0D90002801F00E810D9BCDF878
:105AF00020905B1B0C930E9423EAE3739DF88320A4
:105B00000693CDF83490CDF83C90CDF84C90CDF87C
